:020000040800F2
:1000000040C50020450100082B1D0008711600089E
:10001000511C0008150A0008CB2C00080000000045
:10002000000000000000000000000000EF200008B9
:10003000C10B000800000000B11D000801220008EB
:100040005F0100085F0100085F0100085F01000810
:100050005F0100085F010008CD0E00085F01000885
:10006000E90E0008350F0008450F00085F01000881
:100070005F0100085F0100085F0100085F010008E0
:100080005F0100085F0100085F0100085F010008D0
:100090005F0100085F0100085F0100085F010008C0
:1000A0005F0100085F0100085F0100085F010008B0
:1000B0005F0100085F0100085F0100085F010008A0
:1000C0005F0100085F0100085F0100085F01000890
:1000D0005F010008452800085F0100087D2900082D
:1000E0005F0100085F0100085F0100085F01000870
:1000F0005F0100085F0100085F0100085F01000860
:100100005F0100085F0100085F0100085F0100084F
:100110005F0100085F0100085F0100085F0100083F
:100120005F0100085F0100085F0100085F0100082F
:10013000DFF80CD000F0FAFA004800470139000857
:1001400040C500200648804706480047FEE7FEE716
:10015000FEE7FEE7FEE7FEE7FEE7FEE7FEE7FEE777
:10016000412200083101000840EA01039B0703D047
:1001700009E008C9121F08C0042AFAD203E011F8E6
:10018000013B00F8013B521EF9D27047D2B201E0A8
:1001900000F8012B491EFBD270470022F6E710B58C
:1001A00013460A4604461946FFF7F0FF204610BDE5
:1001B00030B505462A460B4612F8010B13F8014BE1
:1001C00008B1A042F8D01CB1002802D06D1CF1E7A4
:1001D000284630BD10B5044604E00B7800F8013B1A
:1001E00003B1491C521EF8D2204610BDCAB2401EAF
:1001F00010F8011F8A4202D00029F9D1002070476F
:10020000421C10F8011B0029FBD1801A70472DE910
:10021000FE4F804681EA0300C00F0C46009021F09B
:10022000004123F00045B8EB0200A94105D2404649
:10023000214690461C460B46024623F000401043E0
:1002400047D0270DC7F30A00C3F30A510290401AA2
:10025000019040286BDAC3F3130040F4801B009830
:10026000924620B10023D2EB030A63EB0B0B0198FB
:100270005946C0F14002504600F0B1F906460D461D
:1002800050465946019A00F0C9F910EB0800614147
:10029000002487EA115284EAE7731A4340D0009A97
:1002A00062B3019A012A4FEA075215DC001B61EB89
:1002B00002014FF0004202EA0752CDE90042001C61
:1002C00041F5801132462B4600F0C9F903B0BDE874
:1002D000F08F40462146F9E7001B61EB0201001C4C
:1002E00041F5801300185B412018A2F5001747EB79
:1002F000030140EAD570B6196D4111E06D084FEA6F
:10030000360645EAC0754FEA0752001B61EB020151
:10031000001C41F5801149084FEA30000019514195
:1003200032462B4603B0BDE8F04F00F089B9009883
:10033000012240000023D0EB020263EBE07300983F
:1003400021464FEAE074B8EB000061EB0401E9E7F5
:1003500083F000435BE781F0004158E72DE9FE4F51
:1003600081EA030404F0004421F0004100944FF0BE
:10037000000B23F0004350EA01045ED052EA03046C
:100380005BD0C3F30A54C1F30A552C44A4F2F334EE
:100390000194A0FB0254C1F3130141F48011C3F393
:1003A000130343F4801301FB024400FB034E840A51
:1003B000970A44EA815447EA8357A4FB07680295E9
:1003C0008D0A05FB07854FEA932C04FB0C54270587
:1003D000029D4FEA065847EA1637B5EB08056EEB63
:1003E000070C870E920E47EA811742EA8312A7FB99
:1003F0000201B6EB0B0164EB00042B0D43EA0C3356
:100400005E1844EB1C50DA465146E7FB0201C5F387
:1004100013044FEA0B3343EA14534FEA0432019CAE
:1004200043EA0603A4F10C040294009CCDE900B455
:1004300000F015F903B0BDE8F08F00200146F9E7A0
:100440002DE9F04D81EA030404F0004B21F0004552
:1004500014464FF0000A23F0004150EA050220D074
:1004600054EA01021DD0C5F30A570246C5F313032F
:10047000C1F31300C1F30A5640F4801543F480130E
:10048000A7EB0608101BD64608F2FD3873EB0500F3
:1004900002D308F1010801E092185B41B8F1000FA6
:1004A00003DA00200146BDE8F08D00204FF48011F2
:1004B000064684460EE0171B73EB050705D3121B97
:1004C00063EB050306434CEA010C49084FEA300090
:1004D00092185B4150EA0107EDD152EA030012D0B5
:1004E00082EA040083EA0501084305D0101BAB41F2
:1004F00006D20122002306E000224FF0004302E072
:100500006FF0010253101AEB06004CEB085110EB90
:100510000A0041EB0B01BDE8F04D00F091B800007E
:1005200030B5041E71F1000404DB4FF0004440427A
:1005300064EB0101141E73F1000405DB1C464FF04F
:100540000043524263EB0403994208BF904230BD1E
:1005500030B50B46014600202022012409E021FA93
:1005600002F59D4205D303FA02F5491B04FA02F590
:100570002844151EA2F10102F1DC30BD2DE9F05F27
:100580000546002092469B46884606468146402402
:100590001BE0284641464746224600F02FF85346C6
:1005A0005A46C01A914110D311461846224600F00F
:1005B00016F82D1A67EB01084F462246012000214C
:1005C00000F00DF817EB00094E41201EA4F10104C4
:1005D000DFDC484631462A464346BDE8F09F202AE4
:1005E00004DB203A00FA02F1002070479140C2F18A
:1005F000200320FA03F3194390407047202A04DBBC
:10060000203A21FA02F00021704721FA02F3D0408B
:10061000C2F120029140084319467047202A06DBA8
:10062000CB17203A41FA02F043EAE07306E041FAC0
:1006300002F3D040C2F120029140084319467047AE
:1006400010B5141E73F1000408DA401C41F10001DA
:1006500092185B411A4301D120F0010010BD2DE931
:10066000F04D92469B4611B1B1FA81F202E0B0FA28
:1006700080F220329046FFF7B2FF04460F4640EA70
:100680000A0041EA0B0153465A46084313D011466B
:1006900053EA010019D0C8F140025046FFF7AEFFFF
:1006A00005460E46504659464246FFF798FF084316
:1006B00005D0012004E020463946BDE8F08D002039
:1006C000054346EAE0762C4337430A986305E40A7B
:1006D000A0EB08000022FD0A44EA47540A3002D584
:1006E00000200146E9E7010510196941DDE90845E7
:1006F00000196941BDE8F04DA2E7C1F30A52C1F308
:10070000130140F2FF3341F480119A4202DA0020D3
:100710000146704740F233439A42A2F2334202DC70
:100720005242FFF76BBFFFF75ABF0000064C074D60
:1007300006E0E06840F0010394E8070098471034B1
:10074000AC42F6D3FFF7F8FC7CA700089CA7000892
:1007500021B1826842F00102826003E0826822F0E7
:10076000010282607047000010B5044612488442BE
:1007700008D10121401501F059FB0021601501F05D
:1007800055FB17E00D48844208D10121001501F006
:100790004DFB0021201501F049FB0BE00848844285
:1007A00008D10121C80301F041FB00214FF40040B2
:1007B00001F03CFB10BD0000002401400028014076
:1007C000003C0140014600208A6802F004020AB1A0
:1007D000012000E0002070470146C86C80B27047DD
:1007E0000246002013680B400BB1012000E00020FE
:1007F0007047014600208A6802F008020AB1012011
:1008000000E000207047000030B5024600200023C1
:1008100050680F4C20400D790C6844EA05242043B1
:10082000506090680B4C2040D1E902542C434D7924
:1008300044EA450420439060D06A20F470000C7CA8
:10084000641EE4B2234340EA0350D06230BD00008E
:10085000FFFEF0FFFDF7F1FFF0B504460D46002066
:100860000021092D11DDE068A5F10A0606EB460717
:10087000072606FA07F18843A5F10A0606EB4606A5
:1008800003FA06F10843E0600CE0206905EB450738
:10089000072606FA07F1884305EB450603FA06F139
:1008A00008432061072A0FDA606B561E06EB8607A5
:1008B0001F2606FA07F18843561E06EB860605FA40
:1008C00006F10843606322E00D2A0FDA206BD61F81
:1008D00006EB86071F2606FA07F18843D61F06EBAC
:1008E000860605FA06F10843206310E0E06AA2F1EB
:1008F0000D0606EB86071F2606FA07F18843A2F1CC
:100900000D0606EB860605FA06F10843E062F0BD27
:10091000816841F008018160704721B1826842F42A
:10092000A002826003E0826822F4A0028260704725
:10093000816841F0040181607047000030B10749CF
:10094000096841F40001054A116005E0034909689E
:1009500021F40001014A11607047000008240140A1
:1009600000B585B00121480201F050FA4FF4004073
:1009700001F020FA0120FFF7E1FF002000908DF840
:1009800004008DF805004FF46020029000200390D1
:1009900001208DF8100069460F48FFF735FF01214F
:1009A0000D48FFF7D5FE0C48FFF7B2FF00BF0A481D
:1009B000FFF71FFF0028FAD10748FFF7B9FF00BF74
:1009C0000548FFF7FFFE0028FAD101210248FFF792
:1009D000A4FF05B000BD00000024014008B50121BE
:1009E000082001F013FA4FF48070ADF800001020D9
:1009F0008DF8030003208DF802006946044800F0DA
:100A0000C7FB4FF48071024800F096FC08BD00005F
:100A1000000C014000BFFEE710B5002415484068F7
:100A200020F47040134948600846406840F4004094
:100A3000486004E0601CC4B2012002F0CFFE0E4802
:100A4000006808B1642CF5DB642C01DB012010BDCB
:100A5000002404E0601CC4B2012002F0BFFE06487E
:100A6000006808B9642CF5DB642C01DB0120EEE79B
:100A70000020ECE7002001402C01244208B50121B0
:100A8000080201F0C3F94FF40060ADF80000102037
:100A90008DF8030003208DF802006946064800F037
:100AA00077FB4FF40061044800F048FC00F068F860
:100AB000FFF7B2FF08BD00000020014010B5002480
:100AC00004E0601CC4B2012002F088FE0D480068FA
:100AD00008B1642CF5DB002404E0601CC4B20120E2
:100AE00002F07CFE0748006808B9642CF5DB28207A
:100AF00002F074FE0348006808B1012010BD002018
:100B0000FCE700002C01244270B50024002506E01B
:100B10006006040EFFF7D2FF0443681CC5B2082D1F
:100B2000F6DB204670BD7CB505460E4600F028F881
:100B3000FFF772FFF8B9002405E0FFF7E5FF0DF8B5
:100B40000400601CC4B2052CF7DB9DF800009DF882
:100B5000011008449DF8021008449DF80310084451
:100B60009DF80410884208D19DF8000030709DF86F
:100B70000200287001E001207CBD0020FCE700009D
:100B800010B50C48406820F470400A494860084697
:100B9000406840F440504860002007490860142035
:100BA00002F0F6FD01200549C1F8AC011E2002F05B
:100BB00015FE10BD00200140AC012442000024427B
:100BC0007047000010B50446012C04D110210448E0
:100BD00000F0B4FB03E01021014800F0ADFB10BDB4
:100BE000000801402DE9F04106460C4615461F4617
:100BF0002548B0F800046FF30E002349A1F8000463
:100C0000324622A1234801F0F7FE1CB915B9012094
:100C1000BDE8F081B8B202F0BBFD00201A49B1F87E
:100C20000014C1F30E01184A505411461AA002F0E4
:100C3000D1F8B4B1ADB121461348FFF7B9FA08B104
:100C4000012000E0002040B929460F48FFF7B0FA24
:100C500008B1012000E0002008B10120D8E7002001
:100C6000D6E744B121460848FFF7A2FA08B10120AF
:100C7000CEE70020CCE729460348FFF799FA08B1F0
:100C80000120C5E70020C3E73C01002025730D0AC1
:100C900000000000004800402573000030B59FB000
:100CA00004460D462B46224606A101A802F0BAF8DA
:100CB00041F65833002208A101A8FFF793FF1FB0A7
:100CC00030BD000041542B43574A41503D2225730B
:100CD000222C2225732200004F4B000010B59EB03D
:100CE0000446224606A1684602F09CF84FF4FA63D7
:100CF000002209A16846FFF775FF1EB010BD000075
:100D000041542B4D515454434C49454E5449443D54
:100D1000302C2225732200004F4B000030B59FB0CD
:100D200004460D462B46224606A101A802F07AF899
:100D300041F27073002209A101A8FFF753FF1FB011
:100D400030BD000041542B4D515454434F4E4E3D45
:100D5000302C222573222C25732C31004F4B0000A0
:100D600070B5A0B004460D4616463CB12B4622464F
:100D70000AA102A8009602F055F805E033462A467B
:100D800011A102A802F04EF84FF47A73002219A1C3
:100D900002A8FFF727FF20B070BD000041542B4D83
:100DA000515454555345524346473D302C312C2223
:100DB0002573222C222573222C222573222C302CE1
:100DC000302C22220000000041542B4D5154545528
:100DD0005345524346473D302C312C224E554C4C06
:100DE000222C222573222C222573222C302C302CED
:100DF000222200004F4B000010B5044624B1012C04
:100E00000AD0022C18D10FE040F6C4130BA20EA199
:100E10000EA0FFF7E7FE10BD40F6C41307A20AA11B
:100E20000DA0FFF7DFFEF6E740F6C41303A206A10C
:100E30000CA0FFF7D7FEEEE70020ECE76E6F206313
:100E400068616E67650000004F4B000041542B4302
:100E5000574D4F44453D310041542B43574D4F446E
:100E6000453D320041542B43574D4F44453D3300DF
:100E700010B504460D48B0F800046FF30E000B499E
:100E8000A1F800040AA10F4801F0B6FDC82002F045
:100E90007FFC00200549B1F80014C1F30E01034A9C
:100EA0005054114608A001F095FF10BD3C010020F0
:100EB00041542B434950534E545054494D453F0DD6
:100EC0000A000000004800402573000010B5012012
:100ED00000F052F8012801D102480068012000F01A
:100EE00045F810BD0001214210B5042000F044F87F
:100EF000012815D10C48006890B910E001200A497A
:100F00008C3108600948D0F8940108B9012000E04C
:100F10000020074908604FF4FA7002F039FCEDE751
:100F2000042000F023F810BD080123420080214274
:100F30009481214210B5082000F01EF8082000F02E
:100F400015F810BD10B5102000F016F8012805D1D5
:100F50000448006810B9012003490860102000F01F
:100F600005F810BD10012342948121420149086017
:100F70007047000014040140014600200022074B86
:100F80001B6803EA0102054B14331B680B4013B1C5
:100F90000AB1012000E00020704700000004014079
:100FA000002123498279002A3AD00A461268036850
:100FB0009A430B461A600A1D126803689A430B1D78
:100FC0001A60027911440A6803681A430A60184AD1
:100FD0000832126803689A43154B08331A601A1DC9
:100FE000126803689A43124B0C331A604279102A34
:100FF0000ED11A1F126803681A430D4B08331A608A
:101000001A1D126803681A43094B0C331A600DE06D
:101010000749427911440A6803681A430A6005E0E7
:10102000027911440A6803689A430A607047000015
:101030000004014051B18200A2F1C042126842F0A6
:1010400001038200A2F1C042136009E08200A2F114
:10105000C0421268034B1A408300A3F1C0431A60D8
:1010600070470000FEFF0F00D0E901121143C26873
:101070001143026911434269114382691143C269F4
:101080001143026A1143426A1143826A1143C26AE0
:101090001143026B114302689200A2F1C042116039
:1010A000816808290BD101688900A1F1C041096854
:1010B00041F0400201688900A1F1C0410A60416B22
:1010C0000968426B526841EA0211426B926841EA38
:1010D0000221426B928941EA0241426B128A41EA43
:1010E0000251426B127D41EA0261426B92691143E7
:1010F0000268521C9200A2F1C0421160C16AB1F5AF
:10110000804F1BD1816B0968826B526841EA0211E2
:10111000826B926841EA0221826B128A41EA025193
:10112000826B127D41EA0261826B9269114302680F
:101130009200A2F1C042C2F8041107E06FF07042C1
:1011400001688900A1F1C041C1F804217047000085
:1011500030B500228B071C0F0F2303FA04F20B4B50
:101160008C1053F824309343084C8D1044F82530EC
:1011700023468C1053F824308C07240F00FA04F413
:101180002343024C8D1044F8253030BD0800014047
:101190002DE9F0410246002500260020002300240E
:1011A000002791F803C00CF00F0591F803C00CF074
:1011B000100CBCF1000F03D091F802C04CEA0505F9
:1011C00091F800C0BCF1000F31D0146800202BE072
:1011D0004FF0010C0CFA00F3B1F800C00CEA030662
:1011E0009E4220D183004FF00F0C0CFA03F7BC4352
:1011F00005FA03FC4CEA040491F803C0BCF1280F83
:1012000006D14FF0010C0CFA00FCC2F814C00AE041
:1012100091F803C0BCF1480F05D14FF0010C0CFA56
:1012200000FCC2F810C0401C0828D1D31460B1F8EB
:1012300000C0BCF1FF0F34DD546800202EE000F147
:10124000080C4FF0010808FA0CF3B1F800C00CEAE2
:1012500003069E4221D183004FF00F0C0CFA03F7D6
:10126000BC4305FA03FC4CEA040491F803C0BCF14A
:10127000280F05D100F1080C08FA0CF8C2F8148008
:1012800091F803C0BCF1480F07D100F1080C4FF0F2
:10129000010808FA0CF8C2F81080401C0828CED3C8
:1012A0005460BDE8F0810000F0B50A460023002438
:1012B0000021002500F00046B6F1004F02D11D4E7E
:1012C000F16901E01B4E7168C0F3034583B200F47D
:1012D0004016B6F5401F08D121F07061154E7668B2
:1012E00026F07066134F7E6012E000F48016B6F5AB
:1012F000801F06D1032606FA05F4A14341F0706170
:1013000006E0460D360103FA06F6B14341F070617E
:1013100022B1460D360103FA06F6314300F00046CD
:10132000B6F1004F02D1034EF16101E0014E716050
:10133000F0BD00000000014041617047016170474D
:1013400010B504460723012221460948FFF784FA15
:1013500001210748FFF7E1FA00BF02210448FFF727
:101360003FFA0028F9D00248FFF736FA10BD000016
:10137000003C01402DE9F041C6B057A001F02AFD24
:1013800041F2883300225CA15CA0FFF72BFC28B956
:1013900065A001F01FFD46B0BDE8F0816AA001F034
:1013A00019FD4FF47A7002F0F3F96D4A4FF4807131
:1013B00006A801F01FFD06A8FEF722FF8046424660
:1013C00068A101A801F02EFD4FF47A73002269A1F3
:1013D00001A8FFF707FC18B967A001F0FBFC49E082
:1013E000642002F0D5F941F2883300226BA106A8EF
:1013F000FFF7F8FB002839D06A496BA001F0EAFC3E
:1014000066A16848FEF7D4FE05460AE063A1281DE0
:10141000FEF7CEFE8046B8F1000F00D102E045464F
:1014200000BFF3E700BF002D23D03A212846FEF786
:10143000DDFE0646002E1CD0761C63A13046FEF76A
:10144000B7FE0746AFB161A13846FEF7B1FE804650
:10145000B8F1000F02D0002088F8000039465DA0E6
:1014600001F0B8FC384603F0C3F902E061A001F0D6
:10147000B1FC00BF4FF47A7002F08AF9002425E035
:101480004FF47A7300221CA162A0FFF7ABFB98B166
:101490004FF47A7002F07CF94FF47A7002F078F928
:1014A0004FF47A7002F074F94FF47A7002F070F928
:1014B0005CA001F08FFC0BE0611C64A001F08AFCD1
:1014C0004FF4FA7002F064F9601CC4B2032CD7DB4D
:1014D00000BF00BF5FE7000044656275673A2053B4
:1014E00074617274696E67204765745F57656174D3
:1014F0006865720D0A0000004F4B000041542B43F9
:10150000495053544152543D22544350222C22619D
:1015100070692E73656E6976657273652E636F6D83
:10152000222C38300000000044656275673A205470
:10153000435020636F6E6E656374696F6E206661E1
:10154000696C65640D0A000044656275673A205451
:10155000435020636F6E6E65637465640D0A00000E
:10156000F0A6000841542B43495053454E443D25B5
:10157000640000003E00000044656275673A205335
:10158000656E64206C656E67746820636F6D6D6155
:101590006E64206661696C65640D0A002B495044D5
:1015A000000000003C01002044656275673A20524B
:1015B0006573706F6E7365207265636569766564C7
:1015C0003A2025730D0A00007B000000434C4F5366
:1015D0004544000044656275673A20436C65616E5E
:1015E000204A534F4E20646174613A2025730D0ADE
:1015F0000000000044656275673A2048545450204A
:1016000072657175657374206661696C65640D0A35
:101610000000000041542B434950434C4F53453D7B
:101620003000000044656275673A20436F6E6E6556
:101630006374696F6E20636C6F7365642073756388
:101640006365737366756C6C790D0A004465627529
:10165000673A20436C6F736520617474656D7074B4
:10166000202564206661696C65640D0A0000000035
:1016700000BFFEE708B50121442000F0C7FB0120B0
:10168000ADF8000028208DF8030069460648FFF7F2
:101690007FFD1C20ADF8000048208DF8030069464E
:1016A0000248FFF775FD08BD000801400018014021
:1016B00070B506460F484088401E83B20D4800882A
:1016C000401E82B20021084600F05AF800240CE0C7
:1016D000002504E0304600F01FFA681C85B205487A
:1016E0004088A842F6DC601C84B202480088A04210
:1016F000EEDC70BD4000002000B502460F4882714C
:101700006AB9362000F0FCF94C2000F0FFF94FF4E4
:10171000F0700A4948804FF4A07008800CE0362031
:1017200000F0EEF92C2000F0F1F94FF4A07003491D
:1017300048804FF4F070088000BD00004000002099
:1017400070B504460D4616462B46224629462046CD
:1017500000F016F8304600F0DFF970BD10B5024613
:10176000012000E050430B1EA1F10104E1B2F9D1C8
:1017700010BD000001480088704700000008006CA0
:1017800030B504460D462A2000F0BAF9201200F0C8
:10179000BDF9E0B200F0BAF9101200F0B7F9D0B21A
:1017A00000F0B4F92B2000F0ABF9281200F0AEF9EC
:1017B000E8B200F0ABF9181200F0A8F9D8B200F0C6
:1017C000A5F92C2000F09CF930BD00002DE9F84F60
:1017D00080460E4617461C46B3462046E31704EBE8
:1017E0005373DB1021464FEAE47C04EB5C7C4FEA48
:1017F000EC0CA4EBCC0CBCF1000F02D04FF0010CB0
:1018000001E04FF0000C6344224604EBD27C4FEA27
:101810006C0C03FB0CF3DBB20093A7F12000C7B202
:10182000002556E00C2C07D107EB47002B4901EBB4
:10183000800010F8059013E0102C05D1284800EB2B
:10184000071010F805900BE0182C07D107EBC70024
:10185000244901EB800010F8059001E0BDE8F88F05
:101860004FF0000A2FE009F0800030B11E480288D6
:1018700031464046FFF764FF07E00A9828B91B4845
:10188000028831464046FFF75BFF4FEA49604FEA66
:101890001069701C86B216484088B04200DCDDE753
:1018A000A6EB0B00A0420AD15E4608F101001FFA28
:1018B00080F80F480088404500DCCFE706E00AF1D9
:1018C000010000F0FF0ABAF1080FCCDB00BF681C72
:1018D000C5B200988542A5DB00BFBFE7484B0008B2
:1018E000BC4F0008AC5500083C0000203E00002022
:1018F000400000202DE9F84F04460F461546A34648
:10190000009760E0002657E006EB8600C0EB8610EB
:101910002F4911F81000297888424BD106EB860038
:10192000C0EB86102A4901EB400040786978884274
:1019300040D14FF000083AE006EB8600C0EB86107D
:10194000234901EB4000801C10F808A04FF000096B
:1019500026E00AF08000802806D11E480288394619
:101960002046FFF7EDFE05E01B4802883946204679
:10197000FFF7E6FE4FF6FF7000EA4A0A601C84B2E9
:10198000A4EB0B00202807D15C46781C87B2009896
:10199000381A1D2800D1009F09F1010000F0FF094D
:1019A000B9F1080FD5DB08F1010000F0FF08B8F12C
:1019B000740FC1DB701CC6B2322EA5DBAD1C04F166
:1019C000200084B2A346287800289BD1BDE8F88F78
:1019D000889200083C0000203E0000202DE9F847D6
:1019E00004460D4690469946DDE9096704F0FF0A72
:1019F00008EB04001FFA80F809EB05001FFA80F9D4
:101A000016E0444502DB5446A81985B24D4500DB7B
:101A100014E0002000903A78334629462046FFF72C
:101A2000D5FE304606EBD07104EB61018CB27F1C11
:101A300038787E2802DC38782028E2DA00BFBDE85A
:101A4000F8872DE9FF4F82B0064692461F46DDE932
:101A50000F480020019000254DE0781B401EC1B2C8
:101A60000A20FFF77BFEBAFBF0F00A21B0FBF1F28F
:101A700001FB1209019850BB781EA84227DDB9F17D
:101A8000000F22D108F0800078B108F00100A346D1
:101A900004EBDB71491001FB0561009088B223461D
:101AA00030220399FFF792FE0EE008F00100A346F2
:101AB00004EBDB71491001FB0561009088B22346FD
:101AC00020220399FFF782FE13E00120019008F025
:101AD0000100A34604EBDB71491001FB0561009096
:101AE00088B209F13001CAB223460399FFF76EFEAE
:101AF00000BF681CC5B2BD42AFDB06B0BDE8F08FC9
:101B00000149088070470000FE07006C0149088009
:101B1000704700000008006C0112024A1180C1B237
:101B2000118070470008006C08B50121482000F0C2
:101B30006DF92020ADF8000010208DF8030003207F
:101B40008DF8020069460948FFF722FB202107486B
:101B5000FFF7F4FB2020ADF8000069460448FFF7CA
:101B600017FB20210248FFF7E9FB08BD000C0140EC
:101B70000018014070B50024002508E00620FFF79A
:101B8000DFFB0444052001F003FE681CC5B20A2DEA
:101B9000F4DB0A20B4FBF0F4B4F57A6F01D94FF40A
:101BA0007A642820B4FBF0F0C0F16400C0B270BDCC
:101BB00000B587B00121802000F028F90121C80379
:101BC00000F024F90121C80300F030F900214FF49E
:101BD000004000F02BF94FF48070ADF818000020A1
:101BE0008DF81B0006A91848FFF7D2FA1748FEF730
:101BF000BBFD002001908DF808008DF809004FF41E
:101C0000602003900020049001208DF8140001A9A9
:101C10000E48FEF7F9FD01210C48FEF799FD0B482F
:101C2000FEF776FE00BF0948FEF7E3FD0028FAD173
:101C30000648FEF77DFE00BF0448FEF7C3FD0028FE
:101C4000FAD107B000BD0000001C0140003C01407B
:101C500000BFFEE70EB50121084600F0D7F80221CB
:101C60000420FFF775FA03210420FFF771FA04211D
:101C70000846FFF76DFA00210846FFF769FA0620CB
:101C80008DF8080002208DF8090003208DF80A0065
:101C900001208DF80B0002A800F048F808208DF80C
:101CA000080002208DF809008DF80A0001208DF847
:101CB0000B0002A800F03AF809208DF80800012076
:101CC0008DF809008DF80A008DF80B0002A800F0CD
:101CD0002DF80A208DF8080001208DF80900002059
:101CE0008DF80A0001208DF80B0002A800F01EF804
:101CF0000120009000208DF8040008208DF80500D8
:101D000001208DF806006846FFF74AF91C20009074
:101D100000208DF804000C208DF8050001208DF8BE
:101D200006006846FFF73CF90EBD704770B500210C
:101D300000230F22C47804B3154C246804F4E06433
:101D4000C4F5E064210AC1F10403CA40447804FAEE
:101D500003F184781440214309010E4C0678A15503
:101D6000047804F01F050124AC4005786D11AD0026
:101D700005F1E025C5F8004109E0047804F01F05ED
:101D80000124AC40044D0678761145F8264070BD1C
:101D90000CED00E000E400E080E100E002490143D6
:101DA000024A1160704700000000FA050CED00E0E7
:101DB0007047000001460020034A506820F440406C
:101DC00008435060704700000010024029B1064AE5
:101DD00052690243044B5A6104E0034A5269824348
:101DE000014B5A61704700000010024029B1064AB9
:101DF000D2690243044BDA6104E0034AD2698243A8
:101E0000014BDA61704700000010024029B1064A18
:101E100092690243044B9A6104E0034A9269824347
:101E2000014B9A61704700000010024029B1064A38
:101E3000D2680243044BDA6004E0034AD26882436A
:101E4000014BDA60704700000010024030B50021FD
:101E50000022002400232D4D6D6805F00C0121B1F6
:101E6000042905D0082923D105E0294D056022E089
:101E7000274D05601FE0254D6D6805F47012234D58
:101E80006D6805F48034022505EB92421CB9214DA2
:101E9000554305600BE01D4D6D6805F400351DB11F
:101EA0001C4D5543056002E0194D5543056002E0A5
:101EB000174D056000BF00BF144D6D6805F0F001BF
:101EC0000909154D6B5C0568DD4045600F4D6D6877
:101ED00005F4E061090A104D6B5C4568DD408560E2
:101EE0000A4D6D6805F46051C90A0B4D6B5C45687D
:101EF000DD40C560054D6D6805F44041890B074D17
:101F00006B5CC568B5FBF3F5056130BD00100240A0
:101F100000127A0000093D0028000020380000204F
:101F200010B5002406E000221146104600F0BEF86D
:101F3000601CC4B2192CF6DB00F03CF80A2001F05A
:101F400027FC10BD10B5002406E000221146FF203A
:101F500000F0ACF8601CC4B2192CF6DB10BD000018
:101F600008B501214020FFF751FF2020ADF8000007
:101F700010208DF8030003208DF802006946054803
:101F8000FFF706F920210348FFF7D8F9FFF7C8FF4C
:101F900008BD00000018014010B5002406E0002232
:101FA000FF21104600F082F8601CC4B2192CF6DB49
:101FB00010BD000010B520210348FFF7BDF95020E7
:101FC00001F00CFC10BD00000018014010B52021EC
:101FD0001948FFF7B3F900BF00BF00BF00BF00BF43
:101FE00000BF00BF00BF00BF00BF00BF00BF202177
:101FF0001148FFF7A1F900BF00BF00BF00BF00BF3D
:1020000000BF00BF00BF00BF00BF00BF00BF00BFD8
:1020100000BF00BF00BF00BF00BF00BF00BF00BFC8
:1020200000BF00BF00BF00BF00BF00BF00BF00BFB8
:1020300000BF00BF00BF10BD0018014010B5202137
:102040001948FFF77BF900BF00BF00BF00BF00BF0A
:1020500000BF00BF00BF00BF00BF00BF00BF00BF88
:1020600000BF00BF00BF00BF00BF00BF00BF00BF78
:1020700000BF00BF00BF00BF00BF00BF00BF00BF68
:1020800000BF00BF00BF20210748FFF755F900BF80
:1020900000BF00BF00BF00BF00BF00BF00BF00BF48
:1020A00000BF00BF00BF10BD0018014070B506465C
:1020B0000C461546304600F007F8204600F004F8BC
:1020C000284600F001F870BD70B5044600250BE00D
:1020D00004F0800010B1FFF7B1FF01E0FFF776FFD9
:1020E0006006040E681CC5B2082DF1DB70BD704798
:1020F00010B500F001F810BD0CB500200190009063
:102100003348006840F480303149086000BF3048EF
:10211000006800F4003000900198401C0190009885
:1021200018B90198B0F5A06FF1D12948006800F402
:10213000003010B10120009001E0002000900098D4
:10214000012843D12348006840F01000214908606D
:102150000846006820F0030008600846006840F068
:10216000020008601A4840681949486008464068FB
:1021700048600846406840F480604860084640680F
:1021800020F47C1048600846406840F4E81048603D
:102190000846006840F08070086000BF0C48006886
:1021A00000F000700028F9D00948406820F00300D2
:1021B000074948600846406840F00200486000BF98
:1021C0000348406800F00C000828F9D10CBD00005D
:1021D0000010024000200240042808D14FF0E02106
:1021E000096941F004014FF0E022116107E04FF06E
:1021F000E021096921F004014FF0E02211617047EC
:102200007047000010B504466FF00400FFF7E4FFCC
:10221000E11704EB5171C1F3C701074A1170104671
:10222000007800EB4001C1EBC0104FF6FF7101EAEE
:10223000C0000249088010BD480000204A0000206C
:1022400010B51348006840F00100114908600846C5
:102250004068104908400E494860084600680E4929
:1022600008400B4908600846006820F48020086098
:102270000846406820F4FE0048604FF41F00886064
:10228000FFF736FF4FF000600449086010BD000002
:10229000001002400000FFF8FFFFF6FE08ED00E02E
:1022A00000B59DB001210802FFF790FD01200790C5
:1022B000002008900F20099000200A900B900C90AD
:1022C0000D901520009001900520029000200390B1
:1022D00004900590069006200E9000200F9010901C
:1022E00010201190002012901490139015901690C9
:1022F0004FF480501790002018904FF480401990B0
:1023000000201A9007A81B90CDF870D00EA8FEF7F9
:10231000ABFE01210620FEF78DFE1DB000BD0000C2
:1023200008B501214FF4B470FFF770FD4CF2337023
:10233000ADF8000018208DF8030003208DF802008E
:1023400069461848FEF724FF4FF68070ADF800008C
:1023500018208DF8030003208DF80200694612480A
:10236000FEF716FF41F20100ADF8000018208DF8CD
:10237000030003208DF8020069460C48FEF708FFB1
:102380000120ADF8000010208DF8030003208DF827
:10239000020069460648FEF7FBFE01200549086079
:1023A00008BD000000140140001801400020014059
:1023B000000C01408081214210B5FFF7B1FFFFF70B
:1023C0006FFF322001F0E4F9D020FFF799FBFFF70F
:1023D000D1F989498880FFF7CDF987498880084677
:1023E000818886A000F0F6FC1120FFF789FB4FF4EE
:1023F000FA7401E0601E84B2002CFBDCB920FFF708
:102400007FFBFF20FFF782FB8320FFF77FFB572036
:10241000FFF77CFB4FF4FA7401E0601E84B2002CDD
:10242000FBDCB120FFF76CFB0020FFF76FFB1420F3
:10243000FFF76CFB1C20FFF769FB1C20FFF766FB16
:10244000C320FFF763FB4420FFF760FB7020FFF71A
:102450005DFB4FF4FA7401E0601E84B2002CFBDCDB
:10246000B420FFF74DFB2220FFF750FB4020FFF781
:102470004DFB0020FFF74AFB2A20FFF747FB2A20ED
:10248000FFF744FB2020FFF741FB9120FFF73EFBC5
:102490004FF4FA7401E0601E84B2002CFBDC36209D
:1024A000FFF72EFB4C20FFF731FBC020FFF728FB86
:1024B0005020FFF72BFB5020FFF728FB0120FFF7F0
:1024C00025FB3C20FFF722FBC820FFF71FFB08205D
:1024D000FFF71CFB0020FFF719FB0820FFF716FB96
:1024E0000420FFF713FB4FF4FA7401E0601E84B27E
:1024F000002CFBDC4FF4FA7401E0601E84B2002C67
:10250000FBDCE020FFF7FCFA0B20FFF7FFFA1120BD
:10251000FFF7FCFA1E20FFF7F9FA3020FFF7F6FA72
:102520003A20FFF7F3FA4320FFF7F0FA4E20FFF7C7
:10253000EDFA5620FFF7EAFA4520FFF7E7FA3F20C9
:10254000FFF7E4FA3920FFF7E1FA3220FFF7DEFA6D
:102550002F20FFF7DBFA2A20FFF7D8FA2920FFF710
:10256000D5FA2120FFF7D2FA0B20FFF7CFFA11207E
:10257000FFF7CCFA1E20FFF7C9FA3020FFF7C6FAA2
:102580003A20FFF7C3FA4320FFF7C0FA4E20FFF7C7
:10259000BDFA5620FFF7BAFA4520FFF7B7FA3F20F9
:1025A000FFF7B4FA3920FFF7B1FA3220FFF7AEFA9D
:1025B0002F20FFF7ABFA2A20FFF7A8FA2920FFF710
:1025C000A5FA2120FFF7A2FA0020FFF79FFA0120C9
:1025D000FFF79CFA3A20FFF793FA0520FFF796FAE7
:1025E0002920FFF78DFA0020FFF786F84FF6FF70DD
:1025F000FFF75EF810BD000040000020204C43446F
:102600002049443A25780D0A0000000030B589B011
:1026100005460C4601210820FFF7F8FB01210220A6
:10262000FFF7E4FB01210846FFF7F0FB2020ADF89F
:10263000040003208DF8060018208DF8070001A97A
:102640001748FEF7A5FD01211648FEF72DFEADF84F
:102650001C50ADF818400020ADF81E00ADF81A006F
:1026600006A9114800F09CF86020ADF8080002208F
:10267000ADF810000120ADF80A0002A90A4800F0E8
:102680002DF80821084800F07BF80121064800F0E9
:102690000DF80121044800F015F809B030BD000024
:1026A000000C014000081A000004004021B102881B
:1026B00042F08002028004E002884FF67F731A40E5
:1026C0000280704721B1028842F00102028004E0DA
:1026D00002884FF6FE731A400280704770B50024DE
:1026E00000220023058C4FF6EF7635400584028CDE
:1026F0008388048B48F6FF752C404FF6FF452C402D
:102700000D884FF6FF7606EA05252C434FF6DF7558
:102710002A400D8906EA05152A434D8806EA051563
:102720002A43154DA84202D0144DA8421DD14FF6A0
:102730007F752A404D894FF6FF7606EA05152A4334
:102740004FF6BF752A408D8806EA05152A434FF6D5
:10275000FF352B404FF2FF752B408D8906EA85052A
:102760002B43CD8906EA85052B4383800483CD88DE
:102770000587028470BD0000002C01400034014038
:102780000A460021018B4FF2FF7319404FF6FF7389
:1027900003EA022319430183704701877047000051
:1027A000002202881D4B98420ED01D4B98420BD040
:1027B000B0F1804F08D01B4B984205D01A4B98427D
:1027C00002D01A4B984204D14FF68F731A404B88AF
:1027D0001A43174B984207D0164B984204D04FF635
:1027E000FF431A40CB881A4302808B8883850B886D
:1027F00003850A4B98420BD0094B984208D00E4BE8
:10280000984205D00D4B984202D00D4B984201D111
:102810000B7A03860123838270470000002C01405D
:10282000003401400004004000080040000C00405B
:1028300000100040001400400040014000440140EE
:102840000048014010B540F225511D4800F079F9CB
:1028500010B31B4800F030FAC4B21A48008800F4E4
:102860000040C8B91748008800F4804060B10A2CC5
:1028700003D000201349088020E01248008840F46B
:1028800000401049088019E00D2C06D10D48008841
:1028900040F480400B49088010E00A480088C0F3EB
:1028A0000D0009490C5407480088401C0549088060
:1028B00008460088C72801DD0020088010BD000000
:1028C000003801404C0000207400002010B586B094
:1028D000044601210420FFF799FA01218803FFF73C
:1028E00095FA4FF40070ADF8140003208DF816002F
:1028F00018208DF8170005A91E48FEF749FC4FF473
:102900008060ADF8140004208DF8170005A919485F
:10291000FEF73EFC01940020ADF80800ADF80A0077
:10292000ADF80C00ADF810000C20ADF80E0001A9B8
:10293000114800F055F901210F4800F0E9F8402155
:102940000D4800F0DCF8012240F225510A4800F061
:1029500022F925208DF8000003208DF801008DF864
:10296000020001208DF803006846FFF7DFF906B08A
:1029700010BD0000000801400038014010B540F2D1
:1029800025511B4800F0DDF8D8B1194800F094F942
:10299000C4B21848B0F80004C0F30E0040F2FF3192
:1029A00088420EDA1349B1F80014C1F30E00411C3D
:1029B000104AB2F8002461F30E020E49A1F8002477
:1029C0000C5440F224410A4800F0BBF801280DD114
:1029D0000848B0F8000420F4004000F50040054924
:1029E000A1F80004024800F067F9C4B210BD00006D
:1029F000004800403C0100200FB470B586B0064688
:102A00000CA8019073E00B9800785C281CD10B98FF
:102A1000401C0B9000786E2809D072280FD10D2130
:102A2000304600F04EF90B98401C0B900BE00A2149
:102A3000304600F046F90B98401C0B9003E00B98D1
:102A4000401C0B9000BF4BE00B980078252840D12C
:102A50000B98401C0B900078642818D0732833D151
:102A6000019810C801900BE02178304600F029F958
:102A700000BF8021304600F057F80028F9D0641CD0
:102A800020780028F0D10B98401C0B9020E0019892
:102A900020C801900A2202A9284600F0FFFE02ACDD
:102AA0000BE02178304600F00CF900BF8021304661
:102AB00000F03AF80028F9D0641C20780028F0D102
:102AC0000B98401C0B9003E00B98401C0B9000BF30
:102AD00006E00B9810F8011B0B90304600F0F1F85F
:102AE00000BF8021304600F01FF80028F9D00B9875
:102AF0000078002887D106B070BC5DF814FB01F4A3
:102B00000072B2F5007F00D100BFCA430280704757
:102B100021B1828942F40052828104E082894DF61B
:102B2000FF731A408281704702460020B1F5007F92
:102B300000D100BF13880B400BB1012000E0002042
:102B4000704770B50246002400230025002040F69F
:102B50006A16B14200D100BFC1F3421501F01F0354
:102B6000012606FA03F3012D02D19689334006E0CF
:102B7000022D02D1168A334001E0968A33400C12AE
:102B8000012606FA04F41688344013B10CB1012072
:102B900000E0002070BDF0B50346002400260025AB
:102BA000002040F66A17B94200D100BF1846C1F3B1
:102BB000421401F01F06012707FA06F5012C01D186
:102BC0000C3004E0022C01D1103000E014301AB1B6
:102BD00007682F43076002E00768AF430760F0BD56
:102BE0002DE9F04786B005460E460024A24600BFF8
:102BF000A1460027B08900B100BF2F462C8A4CF6B1
:102C0000FF700440F08804432C82AC894EF6F31028
:102C10000440B08831890843718908430443AC817A
:102C2000AC8A4FF6FF400440B0890443AC8201A84F
:102C3000FFF70CF91F48874202D1DDF810A001E030
:102C4000DDF80CA0A88900F4004040B10AEBCA00EE
:102C500000EB0A1031684900B0FBF1F807E00AEB1D
:102C6000CA0000EB0A1031688900B0FBF1F864205B
:102C7000B8FBF0F004012009642101FB1089A88948
:102C800000F4004040B1322000EBC900B0FBF1F08D
:102C900000F00700044308E0322000EB0910642133
:102CA000B0FBF1F000F00F0004432C8106B0BDE84A
:102CB000F08700000038014001468888C0F3080012
:102CC0007047C1F308028280704700BFFEE7000032
:102CD00000B587B001218804FFF788F8012108209A
:102CE000FFF794F801210420FFF790F8012108462E
:102CF000FFF78CF801213348FEF7D6FA48F21000AE
:102D0000ADF8180010208DF81B0003208DF81A0074
:102D100006A92D48FEF73CFA10212B48FEF70CFBC4
:102D20004FF400412848FEF709FB4FF48060ADF8EE
:102D3000180003208DF81A0018208DF81B0006A932
:102D40002248FEF725FA4FF40060ADF81800042081
:102D50008DF81B0006A91D48FEF71AFA4FF4E13062
:102D600002900020ADF80C00ADF80E00ADF8100098
:102D7000ADF814000C20ADF8120002A91448FFF7BA
:102D80002FFF012240F225511148FFF704FF0122D5
:102D900040F224410E48FFF7FEFE01210C48FFF7E8
:102DA000B7FE27208DF8040000208DF805008DF86F
:102DB000060001208DF8070001A8FEF7B7FF07B055
:102DC00000BD00000002300000080140000C01407E
:102DD000004800400FB4054B10B503A9044A0298FF
:102DE00000F02EF910BC5DF814FB00002938000833
:102DF000680000200FB41CB50246002007AC002973
:102E00000BD0491ECDE90021054B6A4621460698A4
:102E100000F016F9009A002111701CBC5DF814FB3B
:102E20006F3700080FB4084B10B504A902AA039825
:102E300000F006F9044602A9002000F0A3FC204699
:102E400010BC5DF814FB0000853700082DE9F04741
:102E500082460F4C10480D4E0E4F001B4FF00008DD
:102E600020F007054FF0010900221146504600F0FE
:102E7000EDFC002802D1306810B10020BDE8F087D9
:102E80003C60C4E90058C6F80090EDE770000020EF
:102E9000440500206C0000204045002002E008C8E6
:102EA000121F08C1002AFAD170477047002001E0C4
:102EB00001C1121F002AFBD1704700002DE9FF5FFE
:102EC00082B00021DDE90430020DDDF840B003439B
:102ED00018D044F61050A2F2FF3242431514119854
:102EE00001281FD0A5EB0B00401C5FEA000A4FF041
:102EF00000064E4FDFF83891B046504615D5CAF15E
:102F0000000413E0119801244AA3012801D16FEABB
:102F10000B010298119AC0E90031C0E9024206B0E3
:102F2000BDE8F09FCBF10000DFE704460021404AF6
:102F3000491842EB0450CDE9001012E0E00707D039
:102F400032463B4640464946FDF708FA80468946E8
:102F500032463B4610461946FDF700FA06460F4634
:102F60006410002CEAD1DDE90401DDE90023BAF1A7
:102F7000000F06DAFDF7F2F942464B46FDF7EEF98F
:102F800005E0FDF75DFA42464B46FDF759FA044667
:102F90000E460022284BFDF7C3FA03D84FF0FF304E
:102FA000014607E00022254B20463146FDF72FF968
:102FB000FDF7A3FB102409E0002C0ADB0A22002302
:102FC000FDF7DCFA039B30321A55641E50EA010209
:102FD000F2D1641C039AC4F111031444119A012A1A
:102FE00003D0012208430DD10AE0084304D0002099
:102FF0004FF0110B119072E7A3EB0B056D1E0DE066
:103000005B4504DD4FF0000205F1010504E003DA41
:103010004FF00002A5F10105002AECD002981199A9
:10302000C0E90231C0E9004579E700000000144022
:103030000000F03F300000000000F0430000E03FDF
:103040002DE9FF4F95B09B468946064600250FE2C5
:10305000252877D100242746F84A0121059400E06D
:10306000044316F8013F203B01FA03F01042F7D168
:1030700030782A2811D06FF02F033078A0F1300279
:10308000092A16D8059A44F0020402EB820203EBE7
:1030900042021044761C0590EFE759F8042B059284
:1030A000002A03DA504244F40054059044F002042C
:1030B000761C30782E2816D116F8010F44F004043F
:1030C0002A280DD06FF02F023078A0F13003092BA1
:1030D00009D807EB870302EB4303C718761CF3E715
:1030E00059F8047B761C30786C280FD006DC4C280D
:1030F00017D068280DD06A2814D104E0742810D0A5
:103100007A280FD10DE044F400140AE044F480144E
:1031100001E044F440147278824202D104F5801434
:10312000761C761C307866280BD013DC582877D0B4
:1031300009DC002875D04528F6D04628F4D0472869
:103140001AD19DE118E0632835D0642879D065282C
:1031500012D195E1702873D008DC6728F1D0692876
:103160006FD06E280DD06F2806D1B5E073282CD013
:10317000752875D0782874D05A46179990476D1CD9
:1031800075E1C4F30250022809D003280DD0D9F804
:10319000001004280DD00D6009F1040967E1D9F889
:1031A0000010EA17C1E90052F6E7D9F800100D80C7
:1031B000F2E70D70F0E719F8041B8DF800100020FD
:1031C0008DF80100EA46012003E059F804AB4FF006
:1031D000FF3061074FF0000102D40DE008F101015A
:1031E0008846B9420FDA8045F8DB1AF80810002942
:1031F000F4D108E008F1010188468142FADB1AF8AF
:1032000008100029F6D105985B46A0EB0807214677
:103210003846179A00F094FA284400EB080507E0B6
:103220004DE029E10DE01AF8010B5A461799904735
:10323000B8F10108F7D25B4621463846179A13E1E8
:1032400042E00A220092C4F302524FF0000A022A1E
:1032500008D059F804CB032A4FEAEC710AD00DE0EC
:1032600029E02AE009F1070121F00702F2E802C192
:10327000914609E00FFA8CFC4FEAEC71042A03D165
:103280004FFA8CFC4FEAEC71002907DA0A4600215C
:10329000DCF1000C61EB02012D2202E0220504D5D5
:1032A0002B228DF80420012203E0E20701D0202226
:1032B000F7E7904659E00A2102E010220DE01021C4
:1032C0004FF0000A00910BE010224FF0000A44F08A
:1032D00004040827009203E008224FF0000A00923D
:1032E000C4F30252022A05D059F804CB0021032A64
:1032F00008D009E009F1070121F00702F2E802C154
:10330000914605E01FFA8CFC042A01D10CF0FF0C59
:103310004FF00008220728D5702806D0009B83F0C4
:10332000100353EA0A0305D00EE040228DF8042072
:10333000012208E05CEA010206D030228DF8042068
:103340008DF8050002229046009B83F0080353EAA3
:103350000A030AD15CEA010201D1620705D53022D5
:103360008DF804204FF001087F1E582804D034A0A7
:1033700003900EA802900DE036A0F9E75346604690
:10338000009AFDF7FBF884460398825C0298401E81
:10339000029002705CEA0100F0D1029806A9081AB6
:1033A00000F1200A600702D524F4803400E00127F0
:1033B000574502DDA7EB0A0000E0002000EB0A0100
:1033C000009005984144401A0590E00306D45B46FE
:1033D0002146179A059800F0B3F90544002706E046
:1033E00001A85A46C05D179990476D1C7F1C474540
:1033F000F6DBE0030CD55B462146179A059800F0F2
:103400009FF9054404E030205A46179990476D1CF7
:103410000099481E00900029F5DC08E00298029906
:103420005A460078491C0291179990476D1CBAF1D1
:103430000001AAF1010AF1DC65E1000009280100A0
:10344000303132333435363738396162636465661A
:1034500000000000303132333435363738394142DC
:10346000434445460000000000F058F90544761C2E
:10347000307800287FF4ECAD19B02846BDE8F08F15
:10348000620700D4062709F1070222F0070CFCE8C6
:103490000223E14603F000485FEA080C02D00FF275
:1034A000702C0DE05FEA045C02D50FF2682C07E097
:1034B0005FEAC47C02D00FF2602C01E0AFF2700C26
:1034C0004FF0FF3823F00043CDF850C065280CD0F2
:1034D00006DC452809D046281DD047283DD13DE0CF
:1034E000662818D067287ED138E00021112F01DB33
:1034F000112000E0781CCDE9000106A90EA8FFF715
:10350000DDFCDDE90F010E9A03910021009207F125
:10351000010A04914DE04FF000400097CDE9011001
:1035200006A90EA8FFF7CAFCDDE90F0203920E9B65
:1035300011990022DDF80CA00093049211B9791CB6
:1035400000EB010AB7EB0A0004D4C0F1FF3007F129
:10355000010A0490AAEB0700019044E0012F00DA71
:1035600001270021112F01DD112000E03846CDE9AF
:10357000000106A90EA8FFF7A1FCDDE90F010E9AD4
:103580000391002104910092BA4621070CD40399BB
:10359000514500DA8A46BAF1010F05DD009AAAF119
:1035A0000101515C302908D0B84202DA10F1040F51
:1035B00006DA0121CDE9011015E0AAF10101E9E7E0
:1035C000002805DC049901440491AAEB000102E003
:1035D000411C514500DD8A460499401A401C019067
:1035E0004FF000400290200704D40198504501DBC1
:1035F000CDF8048000208DF84F0002980DF14F07A0
:10360000B0F1004F25D02B200E9002984FF0020809
:1036100000280CDA404202902D200E9007E00A218B
:103620000298FCF795FF3031029007F8011DB8F1C0
:103630000001A8F10108F2DC02980028EFD1791E00
:103640000E980870307800F0200040F0450007F830
:10365000020D12A8C01B00F107081498007800B1F1
:10366000012000EB0A01019801EBE071059841444B
:10367000401A401E0590E00306D45B462146179A87
:10368000059800F05DF805441498007818B15A4682
:10369000179990476D1CE00324D55B462146179A85
:1036A000059800F04DF805441CE00498002807DB5D
:1036B000DDE90301884203DD0098405C179901E0D1
:1036C000179930205A469047049805F10105401C8F
:1036D00004900198401E019004D12E205A4617995B
:1036E00090476D1CBAF10001AAF1010ADDDC05E08A
:1036F00017F8010B5A46179990476D1CB8F1000155
:10370000A8F10108F4DC5B462146179A0598ABE660
:103710002D0000002B000000200000002DE9F041EA
:10372000044600251E461746880404D405E03946A1
:103730002020B0476D1C641EF9D52846BDE8F081F5
:103740002DE9F041044600251E469046C80301D5E8
:10375000302700E02027880404D505E0414638469C
:10376000B0476D1C641EF9D52846BDE8F0814A6853
:10377000002A06D00A68531C0B6010704868401E6F
:10378000486070470A68531C0B6010707047000057
:103790000146114A12884A434FF0E0235A61002241
:1037A0009A611A46126942F001021A6100BF4FF095
:1037B000E022106900F001021AB100F48032002A00
:1037C000F5D04FF0E022126922F001024FF0E02321
:1037D0001A6100229A6170474A0000200146114A8E
:1037E00012784A434FF0E0235A6100229A611A4648
:1037F000126942F001021A6100BF4FF0E022106925
:1038000000F001021AB100F48032002AF5D04FF026
:10381000E022126922F001024FF0E0231A61002237
:103820009A6170474800002070B504460D46E1B229
:103830000548FFF746FA00BF80210348FFF774F9F7
:103840000028F9D0204670BD003801402DE9F04134
:103850000B3020F00706104D19E02068B04215D358
:10386000B0420AD9871B201DD4F80480FCF77CFCE9
:10387000A019C0E90078286004E060682860201D75
:10388000FCF772FC201D2660BDE8F081251D2C6828
:10389000002CE2D10020F7E76C000020F0B50346D1
:1038A0000D461646002729460A2E03D00020087030
:1038B0002846F0BD33B9302001F8010B0020087014
:1038C0002846F6E7002B03DA2D2001F8010B5B42B6
:1038D00042F210720DE093FBF2F404B937B104F137
:1038E000300001F8010B04FB123301270A2092FB80
:1038F000F0F2002AEFDC002008702846D9E700002B
:10390000A6B000BF00BF002025905A2024901E279B
:103910003220FFF79BFA23900020229000BF00BFC7
:10392000012021904820FEF76DFC4FF4A060FEF7C7
:1039300035FAFEF7F9F8FEF713FB4FF4E130FEF726
:10394000C5FFFEF735F9FEF737FDFDF793FEFDF7EE
:1039500045F8FDF705F8FDF791F847214FF4FA70A7
:10396000FEF754FE4FF4C871E048FEF716FFFEF76D
:1039700071F9C820FFF70CFFFFF7AAF90120FDF746
:1039800021F90020FDF738FAC8230022D8A1D9A0D8
:10399000FDF728F9D8A0FFF71DFA06E0DAA0FFF737
:1039A00019FA41F28830FFF7F3FEDDA1DFA0FDF741
:1039B00075F90028F2D0DFA0FFF70CFAFDF7DAFC6A
:1039C000E04800F015FFDF48B0F800046FF30E0088
:1039D000DC49A1F80004DCA232217820FDF78AFF3F
:1039E0004FF47A70FFF7D4FED9A0FFF7F3F902E0A5
:1039F000DBA0FFF7EFF9DE4ADEA10020FDF7B0F90A
:103A00000028F5D002E0E1A0FFF7E4F9E448FDF773
:103A100065F90028F7D04FF47A70FFF7B9FE02E09D
:103A2000E0A0FFF7D7F9E5A1E6A0FDF777F90028B8
:103A3000F6D0F0A0FFF7CEF9C8230022ACA1F2A087
:103A4000FDF7D0F8FEF76CFA0120FD4908604FF051
:103A5000000AFDE30120FA490860C820FFF798FE3C
:103A6000F8A1B848FCF7A4FB60B1FEF76BFAB548C3
:103A7000B0F800046FF30E00B249A1F80004C820AA
:103A8000FFF786FEF1A1AF48FCF792FB60B1FEF7AD
:103A900047FAAC48B0F800046FF30E00A949A1F84A
:103AA0000004C820FFF774FEEAA1A648FCF780FBDB
:103AB000C8B12621A348FCF799FB05466C1C607829
:103AC000217801EB810100EB41001038C0B2249055
:103AD0009C48B0F800046FF30E009A49A1F8000466
:103AE000C820FFF755FEDCA19648FCF761FBC0B18A
:103AF0002A219448FCF77AFB05466C1C60782178F3
:103B000001EB810100EB41001038C7B28D48B0F8DD
:103B100000046FF30E008B49A1F80004C820FFF7E2
:103B200037FECEA264211420FDF7E4FECDA01821BB
:103B3000CDE90010CC484388028864215020FDF76D
:103B40004DFFCA481821CDE90010C74843880288B4
:103B50006421B420FDF742FFC5A26421D220FDF705
:103B6000C9FEC4A01821CDE90010BF4843880288CF
:103B700064219620FDF732FFBFA01821CDE9001087
:103B8000B9484388028864210846FDF727FFB748F3
:103B900014381821CDE90010B348438802888221E7
:103BA0006420FDF71BFFFA20FFF7F2FDA5A1654891
:103BB000FCF7FEFA60B1FEF7C5F96248B0F8000400
:103BC0006FF30E005F49A1F80004C820FFF7E0FD85
:103BD0009EA15C48FCF7ECFA60B1FEF7A1F95948E8
:103BE000B0F800046FF30E005649A1F80004C82095
:103BF000FFF7CEFD97A15348FCF7DAFAC8B12621AA
:103C00005048FCF7F3FA05466C1C6078217801EB0C
:103C1000810100EB41001038C0B224904948B0F84F
:103C200000046FF30E004749A1F80004C820FFF715
:103C3000AFFD89A14348FCF7BBFAC0B12A21414836
:103C4000FCF7D4FA05466C1C6078217801EB810101
:103C500000EB41001038C7B23A48B0F800046FF3E7
:103C60000E003849A1F80004C820FFF791FD8449EF
:103C70008448FCF758FF002836D183A2E62114209F
:103C8000FDF738FE002018210523CDE900107D48FE
:103C90000278E6218C20FDF7D4FE75A2E621D22021
:103CA000FDF728FE7AA24FF487711420FDF722FE5B
:103CB000002018210523CDE90010714802784FF447
:103CC00087718C20FDF7BDFE73A01821CDE900108F
:103CD0006548438802884FF48771D220FDF77EFE45
:103CE000FDF748FF2590D9E02AE1000000040040DC
:103CF0004F4B000041540000C1ACBDD3CDF8C2E72A
:103D0000D6D00D0A00000000C1ACBDD3CDF8C2E78B
:103D1000CAA7B0DC2CD6D8CAD4D6D00D0A00000071
:103D2000313233343536373800000000636B776347
:103D300000000000C1ACBDD3CDF8C2E7B3C9B9A63D
:103D40000D0A00003C010020C1D6BEF9EEC80000FB
:103D5000C1ACBDD3B0A2C0EFD4C60D0A00000000B4
:103D6000D3C3BBA7C9E8D6C3CAA7B0DC0D0A0000FD
:103D700054A60008455350383236364455414E2635
:103D80006B3231647433784449565A00436C696528
:103D90006E744944C9E8D6C3CAA7B0DC0D0A000056
:103DA00098A60008C1ACBDD3B7FECEF1C6F7CAA72E
:103DB000B0DC2CD6D8CAD4D6D00D0A00313838336E
:103DC00000000000696F742D30367A3030677275EC
:103DD0006D3668773038622E6D7174742E696F7429
:103DE0006875622E616C6979756E63732E636F6D91
:103DF00000000000C1ACBDD3B7FECEF1C6F7B3C919
:103E0000B9A60D0A0000000041542B434950534EFF
:103E100054504346473D312C382C226E7470312E5D
:103E2000616C6979756E2E636F6D222C226E7470D1
:103E30002E736A74752E6564752E636E2200000001
:103E4000940123426F6E3131340000006F66663595
:103E500031340000260000002A000000CCECC6F837
:103E6000000000003A200000400000206200002016
:103E7000A1E6000020000000576569486169000064
:103E80000100002000000020CEC2B6C800000000E3
:103E9000CAAAB6C80000000025524800FEA24FF48E
:103EA0009B711420FDF726FD002018210523CDE984
:103EB00000104FF49B718C20259AFDF7C2FDF8A0ED
:103EC0001821CDE90010F748438802884FF49B7110
:103ED000D220FDF783FDF4A24FF4AF711420FDF75B
:103EE00009FD0020182105233A46CDE900104FF4C2
:103EF000AF718C20FDF7A5FDAFF28C024FF4AF71CE
:103F0000D220FDF7F7FCEBA24FF4C3711420FDF7AC
:103F1000F1FC002018210523CDE900104FF4C371F6
:103F20008C20249AFDF78DFDDDA01821CDE900102D
:103F3000DC48438802884FF4C371D220FDF74EFD60
:103F4000FA20FFF725FCAFF20411DD48FCF730F949
:103F500060B1FDF7F7FFDA48B0F800046FF30E0028
:103F6000D749A1F80004C820FFF712FCAFF22411D2
:103F7000D348FCF71DF960B1FDF7D2FFD048B0F887
:103F800000046FF30E00CE49A1F80004C820FFF72B
:103F9000FFFBAFF24011CA48FCF70AF9C8B126216D
:103FA000C748FCF723F905466C1C6078217801EBC3
:103FB000810100EB41001038C0B22490C048B0F835
:103FC00000046FF30E00BE49A1F80004C820FFF7FB
:103FD000DFFBAFF27C11BA48FCF7EAF8C0B12A2146
:103FE000B748FCF703F905466C1C6078217801EBB3
:103FF000810100EB41001038C7B2B148B0F80004AD
:104000006FF30E00AE49A1F80004C820FFF7C0FB13
:10401000AC480078002817DBAB4909782598CDE932
:104020000010A8480378A9A2B3A103A8FEF7FAFEDE
:104030004FF461730022AFF2483103A8FCF7D2FDC0
:10404000C820FFF7A5FB00BFAFF208219C48FCF792
:10405000AFF860B1FDF776FF9948B0F800046FF350
:104060000E009749A1F80004C820FFF791FBAFF2BA
:1040700024219348FCF79CF860B1FDF751FF90486C
:10408000B0F800046FF30E008D49A1F80004C820B9
:10409000FFF77EFBAFF244218948FCF789F8C8B1ED
:1040A00026218748FCF7A2F805466C1C6078217829
:1040B00001EB810100EB41001038C0B22490804830
:1040C000B0F800046FF30E007D49A1F80004C82089
:1040D000FFF75EFBAFF280217948FCF769F8C0B1C9
:1040E0002A217748FCF782F805466C1C6078217815
:1040F00001EB810100EB41001038C7B27048B0F805
:1041000000046FF30E006E49A1F80004C820FFF709
:104110003FFB0621219890FBF1F201FB12000028E1
:104120007CD14FF4C8730022AFF23C418248FCF7C7
:1041300059FD6448027881A103A8FEF773FE4FF48D
:10414000C8730022AFF2584103A8FCF74BFDC8200A
:10415000FFF71EFB4FF4C8730022AFF26C417648A4
:10416000FCF740FD584802787AA103A8FEF75AFEF2
:104170004FF4C8730022AFF2884103A8FCF732FD68
:10418000C820FFF705FB4FF4C8730022AFF2A0412F
:104190006948FCF727FD75A103A8259AFEF742FEA2
:1041A0004FF4C8730022AFF2B84103A8FCF71AFD20
:1041B000C820FFF7EDFA4FF4C8730022AFF2D041E8
:1041C0007048FCF70FFD70A103A8249AFEF72AFEA1
:1041D0004FF4C8730022AFF2E84103A8FCF702FDD8
:1041E000C820FFF7D5FA4FF4C8730022AFF2005190
:1041F0006448FCF7F7FC3A466BA103A8FEF712FEF1
:104200004FF4C8730022AFF2185103A8FCF7EAFC80
:104210006C48FEF7DFFD0020219000BFAFF2DC31DB
:104220002748FBF7C5FF60B1FDF78CFE2448B0F8C6
:1042300000046FF30E002249A1F80004C820FFF724
:10424000A7FAAFF2F8311E48FBF7B2FF70B100E0F9
:10425000B6E2FDF765FE1A48B0F800046FF30E00F1
:104260001749A1F80004C820FFF792FAAFF21C41E9
:104270001348FBF79DFF68B126211148FBF7B6FFF5
:1042800005466C1C6078217801EB810100EB410050
:10429000103899E0A5E00000B9E2D5D50000000093
:1042A0004C75780040000020CEC2B6C8E3D0D6B529
:1042B00000000000B9E2D5D5E3D0D6B5000000007B
:1042C0003C01002000000020010000202F6B323153
:1042D000647433784449565A2F4553503832363631
:1042E0004455414E2F757365722F45535038323601
:1042F000364455414E00000041542B4D515454500A
:1043000055423D302C222573222C227B5C225465A1
:104310006D705C223A25645C2C5C225765745C22CB
:104320003A25645C2C5C224C73656E735C223A25E2
:10433000647D222C312C3000B4A500087B227061F2
:1043400072616D73223A7B2254656D70223A256446
:104350007D7D00007B22706172616D73223A7B2249
:10436000576574223A25647D7D0000007B227061D0
:1043700072616D73223A7B224C73656E73223A250B
:10438000647D7D0004A600087B22706172616D73FC
:10439000223A7B224C73656E7356616C7565223AC6
:1043A00025647D7D000000007B22706172616D7369
:1043B000223A7B2254656D7056616C7565223A25F0
:1043C000647D7D0070A50008C0B22490FD48B0F85F
:1043D00000046FF30E00FB49A1F80004C820FFF7AA
:1043E000D7F9AFF28C51F748FBF7E2FEC0B12A21B2
:1043F000F448FBF7FBFE05466C1C6078217801EB66
:10440000810100EB41001038C7B2EE48B0F800045B
:104410006FF30E00EB49A1F80004C820FFF7B8F9CC
:104420006420FFF7B5F9E8480078B84216DBBAF126
:10443000000F13D10120E54908606420FFF7A8F9B7
:10444000FDF7AAFD4FF0010A6420FFF7A1F9C8218A
:10445000DF48FEF7A2F9C820FFF79AF9DA4800789A
:10446000B84215DABAF1010F12D14FF4C871D84829
:10447000FEF793F96420FFF78BF90020D349086019
:104480006420FFF785F9FDF74BFDC820FFF780F9A1
:104490000120D0490860D049C1F89401C820FFF735
:1044A00077F9AFF26061C748FBF782FE60B1FDF7B4
:1044B00049FDC448B0F800046FF30E00C149A1F8EB
:1044C0000004C820FFF764F9AFF28061BD48FBF734
:1044D0006FFE60B1FDF724FDBA48B0F800046FF339
:1044E0000E00B849A1F80004C820FFF751F9AFF257
:1044F0009C61B448FBF75CFEC8B12621B148FBF7CC
:1045000075FE05466C1C6078217801EB810100EB9B
:1045100041001038C0B22490AA48B0F800046FF3EC
:104520000E00A849A1F80004C820FFF731F9AFF246
:10453000D861A448FBF73CFEC0B12A21A148FBF793
:1045400055FE05466C1C6078217801EB810100EB7B
:1045500041001038C7B29B48B0F800046FF30E005A
:104560009849A1F80004C820FFF712F92398FCF736
:104570007FFC3A219348FBF739FE8046AFF6900165
:104580009048FBF715FE8146002089F800003A218B
:1045900008F10100FBF72AFE0646707835280AD19B
:1045A000B078392807D1012022908CA0FEF712FCA8
:1045B0000020864908602298E0B17078302819D12F
:1045C000B078302816D10020229083460CE07F4836
:1045D000006808B9012000E000207C490860C8207C
:1045E000FFF7D6F80BF1010BBBF1120FEFDD002046
:1045F0007649086008F101001821CDE900107B48D8
:1046000040884FF6FF7101EA40037848008801EACC
:104610004002AA210A20FDF7E1F9C820FFF7B8F807
:10462000AFF2E0716748FBF7C3FD60B1FDF78AFCAC
:104630006448B0F800046FF30E006249A1F800046A
:10464000C820FFF7A5F8AFF2FC715E48FBF7B0FD9C
:1046500060B1FDF765FC5B48B0F800046FF30E0035
:104660005849A1F80004C820FFF792F8AFF61C01E2
:104670005448FBF79DFDC8B126215248FBF7B6FD13
:1046800005466C1C6078217801EB810100EB41004C
:104690001038C0B224904B48B0F800046FF30E00FD
:1046A0004849A1F80004C820FFF772F8AFF6580196
:1046B0004448FBF77DFDC0B12A214248FBF796FD37
:1046C00005466C1C6078217801EB810100EB41000C
:1046D0001038C7B23B48B0F800046FF30E003949F8
:1046E000A1F80004C820FFF753F8C820FFF750F8DE
:1046F000AFF6B0013348FBF75BFD60B1FDF722FC7C
:104700003048B0F800046FF30E002E49A1F8000401
:10471000C820FFF73DF8AFF6CC012A48FBF748FD6B
:1047200060B1FDF7FDFB2748B0F800046FF30E0001
:104730002449A1F80004C820FFF72AF8AFF6EC01DD
:104740002048FBF735FDC8B126211E48FBF74EFD7A
:1047500005466C1C6078217801EB810100EB41007B
:104760001038C0B224901748B0F800046FF30E0060
:104770001449A1F80004C820FFF70AF8AFF6281181
:104780001048FBF715FDC0B12A210E48FBF72EFD9E
:1047900005466C1C6078217801EB810100EB41003B
:1047A0001038C7B20748B0F800046FF30E0005498F
:1047B000A1F80004C820FEF7EBFF2198401C2190CF
:1047C000FFF748B93C01002000000020A0812142F1
:1047D000000400409401234200002342BCB4BDAB5E
:1047E000D5FBB5E3B1A8CAB10D0A00004000002016
:1047F0002DE9F84F8046414652A0FEF7EBFA58A04B
:10480000FEF7E8FA002405E018F804105BA0FEF7B4
:10481000E1FA641C18F8040008B1642CF4DB59A018
:10482000FEF7D8FA58A14046FBF7C2FC009000986A
:1048300020B957A0FEF7CEFABDE8F88F5DA1009829
:10484000FBF7B6FC0746EFB1083722213846FBF7E5
:10485000CDFC8146B9F1000F14D0A9EB070BBBF1D9
:10486000140F0FD214215648FBF797FC5A463946CD
:104870005348FBF7AFFC0020514901F80B0051A051
:10488000FEF7A8FA58A10098FBF792FC0546002D08
:104890004DD00F3558A0FEF79DFA6FF0090404E0E3
:1048A000295D61A0FEF796FA641C142C02DA285DDB
:1048B0000028F5D133A0FEF78DFA22212846FBF718
:1048C00095FC8246BAF1000F2DD0AAEB05063146C1
:1048D00056A0FEF77FFA5DA0FEF77CFA002404E004
:1048E000295D61A0FEF776FA641CB442F8DB25A0CE
:1048F000FEF770FA002E12DD042E10D2304800218F
:104900004161324629461430FBF764FC00212C48F3
:1049100014308155014656A0FEF75CFA0AE05DA00E
:10492000FEF758FA06E064A0FEF754FA02E06DA024
:10493000FEF750FA224A1432214974A0FEF74AFACF
:1049400000BF79E744656275673A20506172736908
:104950006E67204A534F4E3A2025730D0A0000001F
:1049600044656275673A204A534F4E206865782047
:1049700076616C7565733A2000000000253032586E
:10498000200000000D0A0000226E6F77223A7B00A3
:1049900044656275673A20276E6F772720736563D9
:1049A00074696F6E206E6F7420666F756E640D0A89
:1049B000000000002274657874223A220000000092
:1049C0004E00002044656275673A2050617273653D
:1049D00064207765617468657220746578743A2024
:1049E0005B25735D0D0A00002274656D7065726150
:1049F00074757265223A220044656275673A2046F2
:104A00006F756E642074656D706572617475726522
:104A1000206669656C642E2052617720636F6E7426
:104A20006578743A200000002563000044656275D3
:104A3000673A2054656D7065726174757265206C9B
:104A4000656E6774683A2025640D0A0044656275D6
:104A5000673A2054656D7065726174757265206384
:104A6000686172733A2000005B25635D00000000FE
:104A700044656275673A205061727365642074659D
:104A80006D70657261747572653A205B25735D0D9A
:104A90000A00000044656275673A20496E76616CD1
:104AA00069642074656D7065726174757265206CDF
:104AB000656E6774680D0A0044656275673A205434
:104AC000656D706572617475726520656E642071C4
:104AD000756F7465206E6F7420666F756E640D0A55
:104AE0000000000044656275673A2054656D70658A
:104AF000726174757265206669656C64206E6F748E
:104B000020666F756E640D0A0000000044656275D2
:104B1000673A2046696E616C2077656174686572DA
:104B200020696E666F202D20746578743A205B25AD
:104B3000735D2C2074656D70657261747572653A71
:104B4000205B25735D0D0A000000000000000000DE
:104B500000000000000000003F40000000000000D6
:104B600000003000400030004000000009000BC091
:104B70003D000BC03D00090018C024407FE02240EA
:104B800031800000180024C01B000D8032400180DD
:104B900003801C4027401C8007400040100060003C
:104BA00000000000000000000000000000001F8066
:104BB000204040200000402020401F8000000000D6
:104BC000090006001F800600090000000400040020
:104BD0003F8004000400000000100060000000009E
:104BE00000000000040004000400040004000000B1
:104BF000000000400000000000000000002001C094
:104C000006003800400000001F8020402040204067
:104C10001F800000000010403FC000400000000066
:104C200018C021402240244018400000108020403D
:104C3000244024401B80000002000D0011003FC0F2
:104C4000014000003C802440244024402380000098
:104C50001F802440244034400380000030002000A6
:104C600027C03800200000001B802440244024403E
:104C70001B8000001C0022C0224022401F80000038
:104C800000000000084000000000000000000000DC
:104C90000460000000000000000004000A00110091
:104CA00020804040090009000900090009000000B7
:104CB00000004040208011000A000400180020007D
:104CC00023402400180000001F8020402740294076
:104CD0001F400000004007C039000F0001C0004025
:104CE00020403FC0244024401B8000001F80204003
:104CF000204020403080000020403FC02040204025
:104D00001F80000020403FC024402E4030C00000E3
:104D100020403FC024402E00300000000F001080D3
:104D2000204022403380020020403FC004000400A5
:104D30003FC02040204020403FC020402040000095
:104D40000060202020203FC02000200020403FC0E5
:104D500024400B0030C0204020403FC02040004095
:104D6000004000C03FC03C0003C03C003FC000000A
:104D700020403FC00C4023003FC020001F80204047
:104D8000204020401F80000020403FC024402400DD
:104D9000180000001F802140214020E01FA00000DB
:104DA00020403FC02440260019C0004018C02440C5
:104DB0002440224031800000300020403FC020408D
:104DC0003000000020003F80004000403F80200075
:104DD00020003E0001C0070038002000380007C056
:104DE0003C0007C038000000204039C0060039C030
:104DF000204000002000384007C03840200000005C
:104E0000304021C02640384020C000000000000093
:104E10007FE0402040200000000070000C00038074
:104E2000004000000000402040207FE00000000023
:104E300000002000400020000000000000100010D2
:104E400000100010001000100000000040000000E2
:104E500000000000000002800540054003C0004043
:104E600020003FC004400440038000000000038095
:104E70000440044006400000000003800440244039
:104E80003FC0004000000380054005400340000093
:104E9000000004401FC0244024402000000002E025
:104EA000055005500650042020403FC00440040037
:104EB00003C000400000044027C000400000000084
:104EC00000100010041027E00000000020403FC048
:104ED0000140070004C00440204020403FC0004083
:104EE0000040000007C0040007C0040003C0000029
:104EF000044007C00440040003C0004000000380D9
:104F00000440044003800000041007F004500440F3
:104F100003800000000003800440045007F00010EC
:104F2000044007C0024004000400000000000640E6
:104F30000540054004C00000000004001F8004403C
:104F400000400000040007800040044007C000400B
:104F50000400070004C0018006000400060001C030
:104F6000070001C006000000044006C0010006C0A2
:104F7000044000000410071004E001800600040053
:104F80000000044005C0064004400000000000008E
:104F900004007BE040200000000000000000FFF063
:104FA00000000000000040207BE004000000000042
:104FB0004000800040002000200040000000000071
:104FC00000000000000000000000000000000000E1
:104FD00000001FCC000C00000000000000000800D2
:104FE000300060000800300060000000022003FC78
:104FF0001E20022003FC1E200220000000000E18CC
:1050000011043FFF10840C78000000000F00108492
:105010000F3800C0077818840078000000780F84EB
:1050200010C411240E9800E40084000808006800F1
:105030007000000000000000000000000000000000
:10504000000007E0181820044002000000004002A1
:105050002004181807E00000000000000240024091
:1050600001800FF0018002400240000000800080BB
:1050700000800FF800800080008000000001000D1B
:10508000000E000000000000000000000000008092
:105090000080008000800080008000800000000C04
:1050A000000C0000000000000000000000000006EE
:1050B000001800600180060018002000000007F0C2
:1050C000080810041004080807F000000000080495
:1050D00008041FFC000400040000000000000E0C87
:1050E00010141024104411840E0C000000000C1841
:1050F00010041104110412880C700000000000E07C
:105100000320042408241FFC0024000000001F9832
:10511000108411041104108810700000000007F0C2
:1051200008881104110418880070000000001C0099
:10513000100010FC13001C001000000000000E38CE
:1051400011441084108411440E3800000000070040
:10515000088C10441044088807F00000000000008C
:105160000000030C030C0000000000000000000021
:1051700000010106000000000000000000000080A7
:105180000140022004100808100400000220022040
:105190000220022002200220022000000000100451
:1051A00008080410022001400080000000000E00EA
:1051B0001200100C106C10800F00000003E00C189F
:1051C00013E4142417C4082807D000000004003C8E
:1051D00003C41C40074000E4001C000410041FFC32
:1051E0001104110411040E880070000003E00C1873
:1051F00010041004100410081C10000010041FFC00
:10520000100410041004080807F0000010041FFC2C
:105210001104110417C410040818000010041FFC26
:105220001104110017C010000800000003E00C1862
:105230001004100410441C780040000010041FFCEF
:1052400010840080008010841FFC100400001004F3
:1052500010041FFC100410040000000000030001F3
:10526000100110011FFE10001000000010041FFCB0
:10527000110403801464181C1004000010041FFCA7
:105280001004000400040004000C000010041FFCC3
:105290001F0000FC1F001FFC1004000010041FFC76
:1052A0000C04030000E010181FFC100007F00808B1
:1052B000100410041004080807F0000010041FFC7C
:1052C00010841080108010800F00000007F0081874
:1052D00010241024101C080A07F2000010041FFC00
:1052E0001104110011C011300E0C000400000E1C3E
:1052F00011041084108410441C38000018001000A1
:1053000010041FFC100410001800000010001FF80B
:1053100010040004000410041FF8100010001E0008
:1053200011E0001C007013801C0010001FC0103C16
:1053300000E01F0000E0103C1FC000001004180C2B
:10534000163401C001C01634180C100410001C00E3
:10535000130400FC13041C00100000000804101CBF
:105360001064108413041C041018000000000000D6
:1053700000007FFE400240024002000000003000BA
:105380000C0003800060001C0003000000004002CD
:10539000400240027FFE000000000000000000000C
:1053A00020004000400040002000000000010001FB
:1053B00000010001000100010001000100004000A7
:1053C00040002000000000000000000000000098E5
:1053D000012401440144014400FC000410001FFCAE
:1053E00000880104010400880070000000000070C3
:1053F000008801040104010400880000000000701E
:1054000000880104010411081FFC0004000000F8DA
:10541000014401440144014400C8000000000104AB
:1054200001040FFC1104110411001800000000D643
:1054300001290129012901C90106000010041FFCEE
:10544000008401000100010400FC000400000104CC
:10545000190419FC0004000400000000000000030F
:1054600000010101190119FE0000000010041FFCD9
:105470000024004001B4010C0104000000001004ED
:1054800010041FFC0004000400000000010401FCE3
:105490000104010001FC0104010000FC010401FC05
:1054A000008401000100010400FC0004000000F879
:1054B000010401040104010400F80000010101FFDE
:1054C00000850104010400880070000000000070E5
:1054D000008801040104010501FF00010104010429
:1054E00001FC00840104010001800000000000CCE8
:1054F000012401240124012401980000000001007E
:10550000010007F80104010400000000010001F897
:10551000000400040004010801FC000401000180F3
:105520000170000C001001600180010001F0010C0D
:10553000003001C00030010C01F001000000010446
:10554000018C00740170018C0104000001010181D3
:105550000171000E0018016001800100000001844B
:10556000010C013401440184010C00000000000022
:105570000000000001003EFC40024002000000006C
:1055800000000000FFFF00000000000000004002DB
:1055900040023EFC0100000000000000000060002E
:1055A000800080004000400020002000000000003B
:1055B00000000000000000000000000000000000EB
:1055C00000000000000000000000000000000000DB
:1055D0000000000000000000000000000000000FBC
:1055E00080380FFE380F80380000000000000000F7
:1055F00000000000000000000000010000060000A4
:105600000C00003800003100000600000C000038DB
:105610000000300000000000000000006180006712
:10562000F807F9800061800061800061800061807E
:105630000067F807F98000618000000000000000AA
:10564000000001C0E003E0F00630080418081FFF66
:10565000FE040E080787F00381E000000000000050
:1056600001F000060C00040408060C7001F9C000EB
:105670000E00003BE000EC18070808040C180003BB
:10568000E00000000001E00007F003F818041C0827
:1056900004170807E1D003C0E00023B0003C080075
:1056A0002008000010000000000000010000310090
:1056B000003200001C00000000000000000000009C
:1056C00000000000000000000000000000000000DA
:1056D0000000000000000000000000007F0001FF4B
:1056E000C00780F00C001810000420000200000029
:1056F0000000002000021000040C00180780F001D8
:10570000FFC0007F0000000000000000000000005B
:10571000000000000000000042000066000066007B
:10572000003C0000180003FFC0001800003C00000F
:10573000660000660000420000000000080000084B
:105740000000080000080000080001FFC000080079
:105750000008000008000008000008000000000029
:10576000000100003100003200001C0000000000B9
:105770000000000000000000000000000000000029
:1057800000000000080000080000080000080000F9
:1057900008000008000008000008000008000008D9
:1057A0000000000000000000000000003800003889
:1057B00000003800000000000000000000000000B1
:1057C00000000000000000000000000000060000D3
:1057D0001C000070000180000E0000380000C000B6
:1057E0000700001C00003000000000000000000066
:1057F0007F8001FFE00380700600180400080400A9
:105800000806001803807001FFE0007F80000000A0
:10581000000000000000010008010008010008036A
:10582000FFF807FFF800000800000800000800006B
:105830000000000000000001C03802C058040098B9
:10584000040118040218040418061C1803F81801AF
:10585000E0F800000000000000000001C0E003C00C
:10586000F004000804080804080806180803F418DF
:1058700001E7F00001E0000000000000000000006F
:105880000300000D00001100006100008108030109
:105890000807FFF80FFFF8000108000108000000EA
:1058A0000000000000E007FCD0060808061008060B
:1058B0001008061008061838060FF00607C000008A
:1058C00000000000000000003F8001FFE003843082
:1058D0000208180410080410080410080718100320
:1058E0000FF00007C000000000000000000003C02F
:1058F000000700000600000600F80607F80618007A
:1059000006E00007000006000000000000000001A3
:10591000E1E003F7F0063410041808041808040C3A
:1059200008040C0806161803F3F001C1E00000009B
:1059300000000000F80003FC3003063804020804ED
:1059400002080402080404100308F001FFC0007FED
:105950000000000000000000000000000000000047
:10596000000000007038007038007038000000003F
:105970000000000000000000000000000000000027
:105980000000000000000000301A00301C00000081
:105990000000000000000000000000000000000007
:1059A00000000008000014000022000041000080F8
:1059B00080010040020020040010080008000000E0
:1059C0000000000021000021000021000021000053
:1059D0002100002100002100002100002100002101
:1059E0000000000000000000000008000804001093
:1059F00002002001004000808000410000220000E1
:105A0000140000080000000000000003C00004C0F3
:105A100000040000080038080F3808083808100093
:105A20000C300007E00003C0000000000000000090
:105A30003F8000FFE0038070020F1006708804C0F2
:105A400088048308047F8802C09003012000FE4080
:105A50000000080000180001F8003E0801C200071D
:105A6000020007E20000FE00001FC80001F800006D
:105A70003800000804000807FFF807FFF8040808CA
:105A800004080804080804080806180803F41801A4
:105A9000E7F00001E0000000000000003F8001FF8F
:105AA000E0038070020018040008040008040008E5
:105AB0000400100600200780C00000000400080752
:105AC000FFF807FFF80400080400080400080400B9
:105AD0001802001003807001FFE0007F80000000CA
